:020000004B288B
:100008007E1480312000911D0A280B2849282400DD
:10001800941A0F2810282A2811082000B900BA01BC
:10002800BB01BC013C08C5003B08C4003A08C3003A
:100038003908C2002400151F222823282428151354
:10004800151E2728282846281516462814192D284D
:100058002E28462811082000B900BA01BB01BC01AE
:100068003C08C5003B08C4003A08C3003908C20070
:1000780042088031572080312400161C4428452826
:10008800462815169612200091117E1009004C285A
:10009800FD012000C201C301C401C501C601C70199
:1000A8007E102000BA292000B8003808AD000730BB
:1000B800AD36890B5C282D080139B50035080319C0
:1000C80066286728A928B809B80A0030A3000030B4
:1000D800A2000030A100FF30A0003808AD00AE013A
:1000E800AF01B0013008F3002F08F2002E08F1002C
:1000F8002D08F0000030F7000030F6000330F5005E
:10010800FF30F40081314621803173082000A700B8
:100118007208A6007108A5007008A4008031EB20C1
:10012800803120002108B2002008B1003208AE005A
:100138003108AD00AE36AD0CAE36AD0C2D08B600AC
:1001480036082C0098009B01EA280030A3000030F4
:10015800A2000030A100FF30A0003808AD00AE01B9
:10016800AF01B0013008F3002F08F2002E08F100AB
:100178002D08F0000030F7000030F6000330F500DD
:10018800FF30F40081314621803173082000A70038
:100198007208A6007108A5007008A4008031EB2041
:1001A800803120002108B4002008B3003408AE00D4
:1001B8003308AD00AE36AD0CAE36AD0C2D08B70029
:1001C8002C009801200037082C009B000800003004
:1001D8002000AB000030AA000030A9000030A800C1
:1001E80023082204210420040319FB28FC283D29A4
:1001F800AC01AC0A0A290130A035A10DA20DA30D4E
:10020800890B00290130FC007C08AC07A31F0D29CD
:100218000E29FF280130A835A90DAA0DAB0D890BB1
:100228000F2923082702031D232922082602031D5C
:10023800232921082502031D232920082402031C41
:100248002629272930292008A4022108A53B2208AD
:10025800A63B2308A73B28140130A336A20CA10C07
:10026800A00C890B31290130AC02031D3C293D2922
:100278000E292B08A3002A08A2002908A100280893
:10028800A00008000030FB000030FA000030F90040
:100298000030F800701C512952295A297408F807AF
:1002A8007508F93D7608FA3D7708FB3D0130F435CD
:1002B800F50DF60DF70D890B5B290130F336F20CBD
:1002C800F10CF00C890B6229730872047104700434
:1002D800031D6F2970294E297B08F3007A08F20064
:1002E8007908F1007808F0000800603032009900C1
:1002F80004309F0021000C1519303D009200023097
:100308003C00A10021008C1418303D009100013000
:100318003C00A00023008C0121008C1202303D001B
:10032800950021000C1203303D00940008002000C5
:10033800BD003D35240092009401910136309500AE
:1003480096019701210091150B178B1708000430AF
:1003580020009F0065309E0080302C009900980195
:10036800970180309C009B019A0108008131792116
:100378008131033081319B2181318131AB21813140
:04038800C4294B2811
:020000040001F9
:08000000FF3FFF3FFF3FFF3F00
:08000E00FC3FF33FFF3FFF3F01
:00000001FF
